:1008B10072002000546869732070726F6772616DF5
:0608C1006D61746F72000E
:10080000750900750A00750800AF08EF3395E0FE22
:10081000C3EF9411EE64809480400201AEAF08EF04
:100820003395E0FE74B52FF58274083EF583E493AA
:10083000FFAE09EEFD3395E0FCAE08EEFB3395E02C
:10084000FAEB2DFDEA3CFC74002DF58274003CF5BA
:1008500083EFF0AF08EF3395E0FE74B52FF58274A7
:10086000083EF583E493FFEF3395E0FE7BFF7A08C3
:1008700079B1AC02AD01EDB50730ECB5062C050938
:100880007BFF7A0879B3AF01AE09EEFD3395E0FC4A
:10089000AE08EEFB3395E0FAEB2DFDEA3CFC74006C
:1008A0002DF58274003CF583EFF00508010980FE08
:0108B0002225
:030000000208C72C
:0C08C700787FE4F6D8FD75810A02080075
:00000001FF
